{
  "address": "0x561864789d6043ff0900B55F71d6BcA9bf6bA07a",
  "abi": [
    {
      "inputs": [
        {
          "internalType": "address",
          "name": "_endpoint",
          "type": "address"
        },
        {
          "internalType": "address",
          "name": "_delegate",
          "type": "address"
        }
      ],
      "stateMutability": "nonpayable",
      "type": "constructor"
    },
    {
      "inputs": [
        {
          "internalType": "address",
          "name": "target",
          "type": "address"
        }
      ],
      "name": "AddressEmptyCode",
      "type": "error"
    },
    {
      "inputs": [
        {
          "internalType": "address",
          "name": "account",
          "type": "address"
        }
      ],
      "name": "AddressInsufficientBalance",
      "type": "error"
    },
    {
      "inputs": [],
      "name": "FailedInnerCall",
      "type": "error"
    },
    {
      "inputs": [],
      "name": "InsufficientBalance",
      "type": "error"
    },
    {
      "inputs": [],
      "name": "InvalidDelegate",
      "type": "error"
    },
    {
      "inputs": [],
      "name": "InvalidEndpointCall",
      "type": "error"
    },
    {
      "inputs": [
        {
          "internalType": "bytes",
          "name": "options",
          "type": "bytes"
        }
      ],
      "name": "InvalidOptions",
      "type": "error"
    },
    {
      "inputs": [],
      "name": "LzTokenUnavailable",
      "type": "error"
    },
    {
      "inputs": [
        {
          "internalType": "uint32",
          "name": "eid",
          "type": "uint32"
        }
      ],
      "name": "NoPeer",
      "type": "error"
    },
    {
      "inputs": [
        {
          "internalType": "uint256",
          "name": "msgValue",
          "type": "uint256"
        }
      ],
      "name": "NotEnoughNative",
      "type": "error"
    },
    {
      "inputs": [
        {
          "internalType": "address",
          "name": "addr",
          "type": "address"
        }
      ],
      "name": "OnlyEndpoint",
      "type": "error"
    },
    {
      "inputs": [
        {
          "internalType": "uint32",
          "name": "eid",
          "type": "uint32"
        },
        {
          "internalType": "bytes32",
          "name": "sender",
          "type": "bytes32"
        }
      ],
      "name": "OnlyPeer",
      "type": "error"
    },
    {
      "inputs": [
        {
          "internalType": "address",
          "name": "owner",
          "type": "address"
        }
      ],
      "name": "OwnableInvalidOwner",
      "type": "error"
    },
    {
      "inputs": [
        {
          "internalType": "address",
          "name": "account",
          "type": "address"
        }
      ],
      "name": "OwnableUnauthorizedAccount",
      "type": "error"
    },
    {
      "inputs": [],
      "name": "RateConfiguredNotFound",
      "type": "error"
    },
    {
      "inputs": [
        {
          "internalType": "address",
          "name": "token",
          "type": "address"
        }
      ],
      "name": "SafeERC20FailedOperation",
      "type": "error"
    },
    {
      "anonymous": false,
      "inputs": [
        {
          "components": [
            {
              "internalType": "uint32",
              "name": "eid",
              "type": "uint32"
            },
            {
              "internalType": "uint16",
              "name": "msgType",
              "type": "uint16"
            },
            {
              "internalType": "bytes",
              "name": "options",
              "type": "bytes"
            }
          ],
          "indexed": false,
          "internalType": "struct EnforcedOptionParam[]",
          "name": "_enforcedOptions",
          "type": "tuple[]"
        }
      ],
      "name": "EnforcedOptionSet",
      "type": "event"
    },
    {
      "anonymous": false,
      "inputs": [
        {
          "indexed": true,
          "internalType": "address",
          "name": "previousOwner",
          "type": "address"
        },
        {
          "indexed": true,
          "internalType": "address",
          "name": "newOwner",
          "type": "address"
        }
      ],
      "name": "OwnershipTransferred",
      "type": "event"
    },
    {
      "anonymous": false,
      "inputs": [
        {
          "indexed": false,
          "internalType": "uint32",
          "name": "eid",
          "type": "uint32"
        },
        {
          "indexed": false,
          "internalType": "bytes32",
          "name": "peer",
          "type": "bytes32"
        }
      ],
      "name": "PeerSet",
      "type": "event"
    },
    {
      "inputs": [],
      "name": "SEND",
      "outputs": [
        {
          "internalType": "uint16",
          "name": "",
          "type": "uint16"
        }
      ],
      "stateMutability": "view",
      "type": "function"
    },
    {
      "inputs": [
        {
          "components": [
            {
              "internalType": "uint32",
              "name": "srcEid",
              "type": "uint32"
            },
            {
              "internalType": "bytes32",
              "name": "sender",
              "type": "bytes32"
            },
            {
              "internalType": "uint64",
              "name": "nonce",
              "type": "uint64"
            }
          ],
          "internalType": "struct Origin",
          "name": "origin",
          "type": "tuple"
        }
      ],
      "name": "allowInitializePath",
      "outputs": [
        {
          "internalType": "bool",
          "name": "",
          "type": "bool"
        }
      ],
      "stateMutability": "view",
      "type": "function"
    },
    {
      "inputs": [
        {
          "internalType": "uint32",
          "name": "_eid",
          "type": "uint32"
        },
        {
          "internalType": "uint16",
          "name": "_msgType",
          "type": "uint16"
        },
        {
          "internalType": "bytes",
          "name": "_extraOptions",
          "type": "bytes"
        }
      ],
      "name": "combineOptions",
      "outputs": [
        {
          "internalType": "bytes",
          "name": "",
          "type": "bytes"
        }
      ],
      "stateMutability": "view",
      "type": "function"
    },
    {
      "inputs": [],
      "name": "composeMsgSender",
      "outputs": [
        {
          "internalType": "address",
          "name": "sender",
          "type": "address"
        }
      ],
      "stateMutability": "view",
      "type": "function"
    },
    {
      "inputs": [
        {
          "internalType": "uint32",
          "name": "",
          "type": "uint32"
        }
      ],
      "name": "denominators",
      "outputs": [
        {
          "internalType": "uint256",
          "name": "",
          "type": "uint256"
        }
      ],
      "stateMutability": "view",
      "type": "function"
    },
    {
      "inputs": [],
      "name": "deposit",
      "outputs": [],
      "stateMutability": "payable",
      "type": "function"
    },
    {
      "inputs": [],
      "name": "endpoint",
      "outputs": [
        {
          "internalType": "contract ILayerZeroEndpointV2",
          "name": "",
          "type": "address"
        }
      ],
      "stateMutability": "view",
      "type": "function"
    },
    {
      "inputs": [
        {
          "internalType": "uint32",
          "name": "eid",
          "type": "uint32"
        },
        {
          "internalType": "uint16",
          "name": "msgType",
          "type": "uint16"
        }
      ],
      "name": "enforcedOptions",
      "outputs": [
        {
          "internalType": "bytes",
          "name": "enforcedOption",
          "type": "bytes"
        }
      ],
      "stateMutability": "view",
      "type": "function"
    },
    {
      "inputs": [
        {
          "components": [
            {
              "internalType": "uint32",
              "name": "srcEid",
              "type": "uint32"
            },
            {
              "internalType": "bytes32",
              "name": "sender",
              "type": "bytes32"
            },
            {
              "internalType": "uint64",
              "name": "nonce",
              "type": "uint64"
            }
          ],
          "internalType": "struct Origin",
          "name": "_origin",
          "type": "tuple"
        },
        {
          "internalType": "bytes32",
          "name": "_guid",
          "type": "bytes32"
        },
        {
          "internalType": "bytes",
          "name": "_message",
          "type": "bytes"
        },
        {
          "internalType": "address",
          "name": "_executor",
          "type": "address"
        },
        {
          "internalType": "bytes",
          "name": "_extraData",
          "type": "bytes"
        }
      ],
      "name": "lzReceive",
      "outputs": [],
      "stateMutability": "payable",
      "type": "function"
    },
    {
      "inputs": [
        {
          "internalType": "uint32",
          "name": "",
          "type": "uint32"
        },
        {
          "internalType": "bytes32",
          "name": "",
          "type": "bytes32"
        }
      ],
      "name": "nextNonce",
      "outputs": [
        {
          "internalType": "uint64",
          "name": "nonce",
          "type": "uint64"
        }
      ],
      "stateMutability": "view",
      "type": "function"
    },
    {
      "inputs": [
        {
          "internalType": "uint32",
          "name": "",
          "type": "uint32"
        }
      ],
      "name": "numerators",
      "outputs": [
        {
          "internalType": "uint256",
          "name": "",
          "type": "uint256"
        }
      ],
      "stateMutability": "view",
      "type": "function"
    },
    {
      "inputs": [],
      "name": "oAppVersion",
      "outputs": [
        {
          "internalType": "uint64",
          "name": "senderVersion",
          "type": "uint64"
        },
        {
          "internalType": "uint64",
          "name": "receiverVersion",
          "type": "uint64"
        }
      ],
      "stateMutability": "pure",
      "type": "function"
    },
    {
      "inputs": [],
      "name": "owner",
      "outputs": [
        {
          "internalType": "address",
          "name": "",
          "type": "address"
        }
      ],
      "stateMutability": "view",
      "type": "function"
    },
    {
      "inputs": [
        {
          "internalType": "uint32",
          "name": "eid",
          "type": "uint32"
        }
      ],
      "name": "peers",
      "outputs": [
        {
          "internalType": "bytes32",
          "name": "peer",
          "type": "bytes32"
        }
      ],
      "stateMutability": "view",
      "type": "function"
    },
    {
      "inputs": [
        {
          "components": [
            {
              "internalType": "uint32",
              "name": "dstEid",
              "type": "uint32"
            },
            {
              "internalType": "bytes32",
              "name": "to",
              "type": "bytes32"
            },
            {
              "internalType": "uint256",
              "name": "amount",
              "type": "uint256"
            },
            {
              "internalType": "bytes",
              "name": "extraOptions",
              "type": "bytes"
            }
          ],
          "internalType": "struct SendParam",
          "name": "_sendParam",
          "type": "tuple"
        },
        {
          "internalType": "bool",
          "name": "_payInLzToken",
          "type": "bool"
        }
      ],
      "name": "quote",
      "outputs": [
        {
          "components": [
            {
              "internalType": "uint256",
              "name": "nativeFee",
              "type": "uint256"
            },
            {
              "internalType": "uint256",
              "name": "lzTokenFee",
              "type": "uint256"
            }
          ],
          "internalType": "struct MessagingFee",
          "name": "msgFee",
          "type": "tuple"
        }
      ],
      "stateMutability": "view",
      "type": "function"
    },
    {
      "inputs": [
        {
          "internalType": "uint32",
          "name": "eid",
          "type": "uint32"
        }
      ],
      "name": "rateOf",
      "outputs": [
        {
          "internalType": "uint256",
          "name": "numerator",
          "type": "uint256"
        },
        {
          "internalType": "uint256",
          "name": "denominator",
          "type": "uint256"
        }
      ],
      "stateMutability": "view",
      "type": "function"
    },
    {
      "inputs": [],
      "name": "renounceOwnership",
      "outputs": [],
      "stateMutability": "nonpayable",
      "type": "function"
    },
    {
      "inputs": [
        {
          "components": [
            {
              "internalType": "uint32",
              "name": "dstEid",
              "type": "uint32"
            },
            {
              "internalType": "bytes32",
              "name": "to",
              "type": "bytes32"
            },
            {
              "internalType": "uint256",
              "name": "amount",
              "type": "uint256"
            },
            {
              "internalType": "bytes",
              "name": "extraOptions",
              "type": "bytes"
            }
          ],
          "internalType": "struct SendParam",
          "name": "_sendParam",
          "type": "tuple"
        },
        {
          "components": [
            {
              "internalType": "uint256",
              "name": "nativeFee",
              "type": "uint256"
            },
            {
              "internalType": "uint256",
              "name": "lzTokenFee",
              "type": "uint256"
            }
          ],
          "internalType": "struct MessagingFee",
          "name": "_fee",
          "type": "tuple"
        },
        {
          "internalType": "address",
          "name": "_refundAddress",
          "type": "address"
        }
      ],
      "name": "send",
      "outputs": [],
      "stateMutability": "payable",
      "type": "function"
    },
    {
      "inputs": [
        {
          "internalType": "address",
          "name": "_delegate",
          "type": "address"
        }
      ],
      "name": "setDelegate",
      "outputs": [],
      "stateMutability": "nonpayable",
      "type": "function"
    },
    {
      "inputs": [
        {
          "components": [
            {
              "internalType": "uint32",
              "name": "eid",
              "type": "uint32"
            },
            {
              "internalType": "uint16",
              "name": "msgType",
              "type": "uint16"
            },
            {
              "internalType": "bytes",
              "name": "options",
              "type": "bytes"
            }
          ],
          "internalType": "struct EnforcedOptionParam[]",
          "name": "_enforcedOptions",
          "type": "tuple[]"
        }
      ],
      "name": "setEnforcedOptions",
      "outputs": [],
      "stateMutability": "nonpayable",
      "type": "function"
    },
    {
      "inputs": [
        {
          "internalType": "uint32",
          "name": "_eid",
          "type": "uint32"
        },
        {
          "internalType": "bytes32",
          "name": "_peer",
          "type": "bytes32"
        }
      ],
      "name": "setPeer",
      "outputs": [],
      "stateMutability": "nonpayable",
      "type": "function"
    },
    {
      "inputs": [
        {
          "internalType": "uint32",
          "name": "eid",
          "type": "uint32"
        },
        {
          "internalType": "uint256",
          "name": "numerator",
          "type": "uint256"
        },
        {
          "internalType": "uint256",
          "name": "denominator",
          "type": "uint256"
        }
      ],
      "name": "setRate",
      "outputs": [],
      "stateMutability": "nonpayable",
      "type": "function"
    },
    {
      "inputs": [],
      "name": "totalSupply",
      "outputs": [
        {
          "internalType": "uint256",
          "name": "",
          "type": "uint256"
        }
      ],
      "stateMutability": "view",
      "type": "function"
    },
    {
      "inputs": [
        {
          "internalType": "address",
          "name": "newOwner",
          "type": "address"
        }
      ],
      "name": "transferOwnership",
      "outputs": [],
      "stateMutability": "nonpayable",
      "type": "function"
    },
    {
      "inputs": [
        {
          "internalType": "uint256",
          "name": "amount",
          "type": "uint256"
        }
      ],
      "name": "withdraw",
      "outputs": [],
      "stateMutability": "nonpayable",
      "type": "function"
    },
    {
      "stateMutability": "payable",
      "type": "receive"
    }
  ],
  "transactionHash": "0x7fa7bacb386c2631b3804f3136bafa70d8f143a911c98e042ff4079ec0d18139",
  "args": [
    "0x6EDCE65403992e310A62460808c4b910D972f10f",
    "0xBac8ECdbc45A50d3bda7246bB2AA64Fc449C7924"
  ],
  "numDeployments": 1,
  "solcInputHash": "db901ad91a400cd00ff32765050a99b1",
  "bytecode": "0x60a06040523480156200001157600080fd5b50604051620020ad380380620020ad83398101604081905262000034916200017c565b81818181806001600160a01b0381166200006857604051631e4fbdf760e01b81526000600482015260240160405180910390fd5b62000073816200010f565b506001600160a01b038083166080528116620000a257604051632d618d8160e21b815260040160405180910390fd5b60805160405163ca5eb5e160e01b81526001600160a01b0383811660048301529091169063ca5eb5e190602401600060405180830381600087803b158015620000ea57600080fd5b505af1158015620000ff573d6000803e3d6000fd5b50505050505050505050620001b4565b600080546001600160a01b038381166001600160a01b0319831681178455604051919092169283917f8be0079c531659141344cd1fd0a4f28419497f9722a3daafe3b4186f6b6457e09190a35050565b80516001600160a01b03811681146200017757600080fd5b919050565b600080604083850312156200019057600080fd5b6200019b836200015f565b9150620001ab602084016200015f565b90509250929050565b608051611eb3620001fa600039600081816102c9015281816105b301528181610b3401528181610cb301528181610f990152818161112301526111dc0152611eb36000f3fe60806040526004361061016a5760003560e01c80637ebca64d116100d1578063bc70b3541161008a578063d0e30db011610064578063d0e30db0146104b3578063f2fde38b146104bb578063fc593f74146104db578063ff7bd03d1461050857600080fd5b8063bc70b3541461041e578063bf3476e01461043e578063ca5eb5e11461049357600080fd5b80637ebca64d146103535780638da5cb5b1461037357806398bc23d814610391578063b92d0eff146103be578063b98bd070146103d1578063bb0b6a53146103f157600080fd5b80633400288b116101235780633400288b1461022f57806340c5c6da1461024f5780635535d4611461028a5780635e280f11146102b7578063715018a6146103035780637d25a05e1461031857600080fd5b806304dfd4261461017e57806313137d651461019157806317442b70146101a457806318160ddd146101ca5780631f5e1334146101e75780632e1a7d4d1461020f57600080fd5b3661017957610177610538565b005b600080fd5b61017761018c366004611472565b610542565b61017761019f366004611539565b6105b1565b3480156101b057600080fd5b506040805160018082526020820152015b60405180910390f35b3480156101d657600080fd5b50475b6040519081526020016101c1565b3480156101f357600080fd5b506101fc600181565b60405161ffff90911681526020016101c1565b34801561021b57600080fd5b5061017761022a3660046115d8565b610671565b34801561023b57600080fd5b5061017761024a36600461160a565b6106a7565b34801561025b57600080fd5b5061026f61026a366004611642565b610705565b604080518251815260209283015192810192909252016101c1565b34801561029657600080fd5b506102aa6102a53660046116a5565b61074d565b6040516101c19190611728565b3480156102c357600080fd5b506102eb7f000000000000000000000000000000000000000000000000000000000000000081565b6040516001600160a01b0390911681526020016101c1565b34801561030f57600080fd5b506101776107f2565b34801561032457600080fd5b5061033b61033336600461160a565b600092915050565b6040516001600160401b0390911681526020016101c1565b34801561035f57600080fd5b5061017761036e36600461173b565b610804565b34801561037f57600080fd5b506000546001600160a01b03166102eb565b34801561039d57600080fd5b506101d96103ac36600461176e565b60036020526000908152604090205481565b3480156103ca57600080fd5b50306102eb565b3480156103dd57600080fd5b506101776103ec366004611789565b610831565b3480156103fd57600080fd5b506101d961040c36600461176e565b60016020526000908152604090205481565b34801561042a57600080fd5b506102aa6104393660046117fd565b610992565b34801561044a57600080fd5b5061047e61045936600461176e565b63ffffffff166000908152600360209081526040808320546004909252909120549091565b604080519283526020830191909152016101c1565b34801561049f57600080fd5b506101776104ae36600461185d565b610b0d565b610177610538565b3480156104c757600080fd5b506101776104d636600461185d565b610b93565b3480156104e757600080fd5b506101d96104f636600461176e565b60046020526000908152604090205481565b34801561051457600080fd5b5061052861052336600461187a565b610bce565b60405190151581526020016101c1565b610540610c04565b565b610551823560408501356118ac565b34101561057157604051631e9acf1760e31b815260040160405180910390fd5b60008061057d85610c31565b90925090506105a9610592602087018761176e565b83836105a3368990038901896118fd565b87610c80565b505050505050565b7f00000000000000000000000000000000000000000000000000000000000000006001600160a01b03163314610601576040516391ac5e4f60e01b81523360048201526024015b60405180910390fd5b6020870180359061061b90610616908a61176e565b610d8b565b146106595761062d602088018861176e565b60405163309afaf360e21b815263ffffffff9091166004820152602088013560248201526044016105f8565b61066887878787878787610dc7565b50505050505050565b610679610c04565b8047101561069a57604051631e9acf1760e31b815260040160405180910390fd5b6106a43382610ee7565b50565b6106af610c04565b63ffffffff8216600081815260016020908152604091829020849055815192835282018390527f238399d427b947898edb290f5ff0f9109849b1c3ba196a42e35f00c50a54b98b91015b60405180910390a15050565b604080518082019091526000808252602082015260008061072585610c31565b909250905061074261073a602087018761176e565b838387610f83565b925050505b92915050565b6002602090815260009283526040808420909152908252902080546107719061192f565b80601f016020809104026020016040519081016040528092919081815260200182805461079d9061192f565b80156107ea5780601f106107bf576101008083540402835291602001916107ea565b820191906000526020600020905b8154815290600101906020018083116107cd57829003601f168201915b505050505081565b6107fa610c04565b6105406000611064565b61080c610c04565b63ffffffff909216600090815260036020908152604080832093909355600490522055565b610839610c04565b60005b818110156109605761087e83838381811061085957610859611963565b905060200281019061086b9190611979565b610879906040810190611999565b6110b4565b82828281811061089057610890611963565b90506020028101906108a29190611979565b6108b0906040810190611999565b600260008686868181106108c6576108c6611963565b90506020028101906108d89190611979565b6108e690602081019061176e565b63ffffffff1663ffffffff168152602001908152602001600020600086868681811061091457610914611963565b90506020028101906109269190611979565b6109379060408101906020016119df565b61ffff168152602081019190915260400160002091610957919083611a42565b5060010161083c565b507fbe4864a8e820971c0247f5992e2da559595f7bf076a21cb5928d443d2a13b67482826040516106f9929190611b2a565b63ffffffff8416600090815260026020908152604080832061ffff871684529091528120805460609291906109c69061192f565b80601f01602080910402602001604051908101604052809291908181526020018280546109f29061192f565b8015610a3f5780601f10610a1457610100808354040283529160200191610a3f565b820191906000526020600020905b815481529060010190602001808311610a2257829003601f168201915b505050505090508051600003610a8f5783838080601f016020809104026020016040519081016040528093929190818152602001838380828437600092019190915250929450610b059350505050565b6000839003610a9f579050610b05565b60028310610ae857610ab184846110b4565b80610abf8460028188611c0e565b604051602001610ad193929190611c38565b604051602081830303815290604052915050610b05565b8383604051639a6d49cd60e01b81526004016105f8929190611c60565b949350505050565b610b15610c04565b60405163ca5eb5e160e01b81526001600160a01b0382811660048301527f0000000000000000000000000000000000000000000000000000000000000000169063ca5eb5e190602401600060405180830381600087803b158015610b7857600080fd5b505af1158015610b8c573d6000803e3d6000fd5b5050505050565b610b9b610c04565b6001600160a01b038116610bc557604051631e4fbdf760e01b8152600060048201526024016105f8565b6106a481611064565b6000602082018035906001908390610be6908661176e565b63ffffffff1681526020810191909152604001600020541492915050565b6000546001600160a01b031633146105405760405163118cdaa760e01b81523360048201526024016105f8565b60408051602083810180359183019190915283830135828401528251808303840181526060928301909352610c7990610c6a908561176e565b60016104396060870187611999565b9050915091565b610c886113fe565b6000610c9784600001516110f6565b602085015190915015610cb157610cb1846020015161111f565b7f00000000000000000000000000000000000000000000000000000000000000006001600160a01b0316632637a450826040518060a001604052808b63ffffffff168152602001610d018c610d8b565b81526020018a815260200189815260200160008960200151111515815250866040518463ffffffff1660e01b8152600401610d3d929190611c74565b60806040518083038185885af1158015610d5b573d6000803e3d6000fd5b50505050506040513d601f19601f82011682018060405250810190610d809190611d1d565b979650505050505050565b63ffffffff8116600090815260016020526040812054806107475760405163f6ff4fb760e01b815263ffffffff841660048201526024016105f8565b6000610dd9610dd68787611205565b90565b90506000610de78787611224565b905060036000610dfa60208c018c61176e565b63ffffffff1681526020810191909152604001600020541580610e42575060046000610e2960208c018c61176e565b63ffffffff168152602081019190915260400160002054155b15610e6057604051630e186f4360e21b815260040160405180910390fd5b6000600481610e7260208d018d61176e565b63ffffffff1663ffffffff16815260200190815260200160002054600360008c6000016020810190610ea4919061176e565b63ffffffff168152602081019190915260400160002054610ec59084611d8e565b610ecf9190611da5565b9050610edb8382610ee7565b50505050505050505050565b80471015610f0a5760405163cd78605960e01b81523060048201526024016105f8565b6000826001600160a01b03168260405160006040518083038185875af1925050503d8060008114610f57576040519150601f19603f3d011682016040523d82523d6000602084013e610f5c565b606091505b5050905080610f7e57604051630a12f52160e11b815260040160405180910390fd5b505050565b60408051808201909152600080825260208201527f00000000000000000000000000000000000000000000000000000000000000006001600160a01b031663ddc28c586040518060a001604052808863ffffffff168152602001610fe689610d8b565b8152602001878152602001868152602001851515815250306040518363ffffffff1660e01b815260040161101b929190611c74565b6040805180830381865afa158015611037573d6000803e3d6000fd5b505050506040513d601f19601f8201168201806040525081019061105b9190611dc7565b95945050505050565b600080546001600160a01b038381166001600160a01b0319831681178455604051919092169283917f8be0079c531659141344cd1fd0a4f28419497f9722a3daafe3b4186f6b6457e09190a35050565b60006110c36002828486611c0e565b6110cc91611de3565b60f01c905060038114610f7e578282604051639a6d49cd60e01b81526004016105f8929190611c60565b60008134101561111b576040516304fb820960e51b81523460048201526024016105f8565b5090565b60007f00000000000000000000000000000000000000000000000000000000000000006001600160a01b031663e4fe1d946040518163ffffffff1660e01b8152600401602060405180830381865afa15801561117f573d6000803e3d6000fd5b505050506040513d601f19601f820116820180604052508101906111a39190611e13565b90506001600160a01b0381166111cc576040516329b99a9560e11b815260040160405180910390fd5b6112016001600160a01b038216337f000000000000000000000000000000000000000000000000000000000000000085611234565b5050565b60006112146020828486611c0e565b61121d91611e30565b9392505050565b6000611214604060208486611c0e565b604080516001600160a01b0385811660248301528416604482015260648082018490528251808303909101815260849091019091526020810180516001600160e01b03166323b872dd60e01b17905261128e908590611294565b50505050565b60006112a96001600160a01b038416836112f7565b905080516000141580156112ce5750808060200190518101906112cc9190611e4e565b155b15610f7e57604051635274afe760e01b81526001600160a01b03841660048201526024016105f8565b606061121d8383600084600080856001600160a01b0316848660405161131d9190611e6b565b60006040518083038185875af1925050503d806000811461135a576040519150601f19603f3d011682016040523d82523d6000602084013e61135f565b606091505b509150915061136f868383611379565b9695505050505050565b60608261138e57611389826113d5565b61121d565b81511580156113a557506001600160a01b0384163b155b156113ce57604051639996b31560e01b81526001600160a01b03851660048201526024016105f8565b508061121d565b8051156113e55780518082602001fd5b604051630a12f52160e11b815260040160405180910390fd5b60405180606001604052806000801916815260200160006001600160401b03168152602001611440604051806040016040528060008152602001600081525090565b905290565b60006080828403121561145757600080fd5b50919050565b6001600160a01b03811681146106a457600080fd5b6000806000838503608081121561148857600080fd5b84356001600160401b0381111561149e57600080fd5b6114aa87828801611445565b9450506040601f19820112156114bf57600080fd5b5060208401915060608401356114d48161145d565b809150509250925092565b60006060828403121561145757600080fd5b60008083601f84011261150357600080fd5b5081356001600160401b0381111561151a57600080fd5b60208301915083602082850101111561153257600080fd5b9250929050565b600080600080600080600060e0888a03121561155457600080fd5b61155e89896114df565b96506060880135955060808801356001600160401b038082111561158157600080fd5b61158d8b838c016114f1565b909750955060a08a013591506115a28261145d565b90935060c089013590808211156115b857600080fd5b506115c58a828b016114f1565b989b979a50959850939692959293505050565b6000602082840312156115ea57600080fd5b5035919050565b803563ffffffff8116811461160557600080fd5b919050565b6000806040838503121561161d57600080fd5b611626836115f1565b946020939093013593505050565b80151581146106a457600080fd5b6000806040838503121561165557600080fd5b82356001600160401b0381111561166b57600080fd5b61167785828601611445565b925050602083013561168881611634565b809150509250929050565b803561ffff8116811461160557600080fd5b600080604083850312156116b857600080fd5b6116c1836115f1565b91506116cf60208401611693565b90509250929050565b60005b838110156116f35781810151838201526020016116db565b50506000910152565b600081518084526117148160208601602086016116d8565b601f01601f19169290920160200192915050565b60208152600061121d60208301846116fc565b60008060006060848603121561175057600080fd5b611759846115f1565b95602085013595506040909401359392505050565b60006020828403121561178057600080fd5b61121d826115f1565b6000806020838503121561179c57600080fd5b82356001600160401b03808211156117b357600080fd5b818501915085601f8301126117c757600080fd5b8135818111156117d657600080fd5b8660208260051b85010111156117eb57600080fd5b60209290920196919550909350505050565b6000806000806060858703121561181357600080fd5b61181c856115f1565b935061182a60208601611693565b925060408501356001600160401b0381111561184557600080fd5b611851878288016114f1565b95989497509550505050565b60006020828403121561186f57600080fd5b813561121d8161145d565b60006060828403121561188c57600080fd5b61121d83836114df565b634e487b7160e01b600052601160045260246000fd5b8082018082111561074757610747611896565b634e487b7160e01b600052604160045260246000fd5b604080519081016001600160401b03811182821017156118f7576118f76118bf565b60405290565b60006040828403121561190f57600080fd5b6119176118d5565b82358152602083013560208201528091505092915050565b600181811c9082168061194357607f821691505b60208210810361145757634e487b7160e01b600052602260045260246000fd5b634e487b7160e01b600052603260045260246000fd5b60008235605e1983360301811261198f57600080fd5b9190910192915050565b6000808335601e198436030181126119b057600080fd5b8301803591506001600160401b038211156119ca57600080fd5b60200191503681900382131561153257600080fd5b6000602082840312156119f157600080fd5b61121d82611693565b601f821115610f7e576000816000526020600020601f850160051c81016020861015611a235750805b601f850160051c820191505b818110156105a957828155600101611a2f565b6001600160401b03831115611a5957611a596118bf565b611a6d83611a67835461192f565b836119fa565b6000601f841160018114611aa15760008515611a895750838201355b600019600387901b1c1916600186901b178355610b8c565b600083815260209020601f19861690835b82811015611ad25786850135825560209485019460019092019101611ab2565b5086821015611aef5760001960f88860031b161c19848701351681555b505060018560011b0183555050505050565b81835281816020850137506000828201602090810191909152601f909101601f19169091010190565b60208082528181018390526000906040808401600586901b8501820187855b88811015611c0057878303603f190184528135368b9003605e19018112611b6f57600080fd5b8a01606063ffffffff611b81836115f1565b16855261ffff611b92898401611693565b168886015286820135601e19833603018112611bad57600080fd5b9091018781019190356001600160401b03811115611bca57600080fd5b803603831315611bd957600080fd5b8188870152611beb8287018285611b01565b96890196955050509186019150600101611b49565b509098975050505050505050565b60008085851115611c1e57600080fd5b83861115611c2b57600080fd5b5050820193919092039150565b60008451611c4a8184602089016116d8565b8201838582376000930192835250909392505050565b602081526000610b05602083018486611b01565b6040815263ffffffff8351166040820152602083015160608201526000604084015160a06080840152611caa60e08401826116fc565b90506060850151603f198483030160a0850152611cc782826116fc565b60809690960151151560c08501525050506001600160a01b039190911660209091015290565b600060408284031215611cff57600080fd5b611d076118d5565b9050815181526020820151602082015292915050565b600060808284031215611d2f57600080fd5b604051606081016001600160401b038282108183111715611d5257611d526118bf565b8160405284518352602085015191508082168214611d6f57600080fd5b506020820152611d828460408501611ced565b60408201529392505050565b808202811582820484141761074757610747611896565b600082611dc257634e487b7160e01b600052601260045260246000fd5b500490565b600060408284031215611dd957600080fd5b61121d8383611ced565b6001600160f01b03198135818116916002851015611e0b5780818660020360031b1b83161692505b505092915050565b600060208284031215611e2557600080fd5b815161121d8161145d565b8035602083101561074757600019602084900360031b1b1692915050565b600060208284031215611e6057600080fd5b815161121d81611634565b6000825161198f8184602087016116d856fea264697066735822122057e5d089775b9704148283db56fa1a344c4872a961eab8fbdc7b9ed4e2e1f53664736f6c63430008160033",
  "devdoc": {
    "errors": {
      "AddressEmptyCode(address)": [
        {
          "details": "There's no code at `target` (it is not a contract)."
        }
      ],
      "AddressInsufficientBalance(address)": [
        {
          "details": "The ETH balance of the account is not enough to perform the operation."
        }
      ],
      "FailedInnerCall()": [
        {
          "details": "A call to an address target failed. The target may have reverted."
        }
      ],
      "OwnableInvalidOwner(address)": [
        {
          "details": "The owner is not a valid owner account. (eg. `address(0)`)"
        }
      ],
      "OwnableUnauthorizedAccount(address)": [
        {
          "details": "The caller account is not authorized to perform an operation."
        }
      ],
      "SafeERC20FailedOperation(address)": [
        {
          "details": "An operation with an ERC20 token failed."
        }
      ]
    },
    "kind": "dev",
    "methods": {
      "allowInitializePath((uint32,bytes32,uint64))": {
        "details": "This indicates to the endpoint that the OApp has enabled msgs for this particular path to be received.This defaults to assuming if a peer has been set, its initialized. Can be overridden by the OApp if there is other logic to determine this.",
        "params": {
          "origin": "The origin information containing the source endpoint and sender address."
        },
        "returns": {
          "_0": "Whether the path has been initialized."
        }
      },
      "combineOptions(uint32,uint16,bytes)": {
        "details": "If there is an enforced lzReceive option: - {gasLimit: 200k, msg.value: 1 ether} AND a caller supplies a lzReceive option: {gasLimit: 100k, msg.value: 0.5 ether} - The resulting options will be {gasLimit: 300k, msg.value: 1.5 ether} when the message is executed on the remote lzReceive() function.This presence of duplicated options is handled off-chain in the verifier/executor.",
        "params": {
          "_eid": "The endpoint ID.",
          "_extraOptions": "Additional options passed by the caller.",
          "_msgType": "The OAPP message type."
        },
        "returns": {
          "_0": "options The combination of caller specified options AND enforced options."
        }
      },
      "composeMsgSender()": {
        "details": "Applications can optionally choose to implement a separate composeMsg sender that is NOT the bridging layer.The default sender IS the OApp implementer.",
        "returns": {
          "sender": "The address responsible for 'sending' composeMsg's to the Endpoint."
        }
      },
      "lzReceive((uint32,bytes32,uint64),bytes32,bytes,address,bytes)": {
        "details": "Entry point for receiving messages or packets from the endpoint.Entry point for receiving msg/packet from the LayerZero endpoint.",
        "params": {
          "_executor": "The address of the executor for the received message.",
          "_extraData": "Additional arbitrary data provided by the corresponding executor.",
          "_guid": "The unique identifier for the received LayerZero message.",
          "_message": "The payload of the received message.",
          "_origin": "The origin information containing the source endpoint and sender address.  - srcEid: The source chain endpoint ID.  - sender: The sender address on the src chain.  - nonce: The nonce of the message."
        }
      },
      "nextNonce(uint32,bytes32)": {
        "details": "_srcEid The source endpoint ID._sender The sender address.The path nonce starts from 1. If 0 is returned it means that there is NO nonce ordered enforcement.Is required by the off-chain executor to determine the OApp expects msg execution is ordered.This is also enforced by the OApp.By default this is NOT enabled. ie. nextNonce is hardcoded to return 0.",
        "returns": {
          "nonce": "The next nonce."
        }
      },
      "oAppVersion()": {
        "returns": {
          "receiverVersion": "The version of the OAppReceiver.sol implementation.",
          "senderVersion": "The version of the OAppSender.sol implementation."
        }
      },
      "owner()": {
        "details": "Returns the address of the current owner."
      },
      "renounceOwnership()": {
        "details": "Leaves the contract without owner. It will not be possible to call `onlyOwner` functions. Can only be called by the current owner. NOTE: Renouncing ownership will leave the contract without an owner, thereby disabling any functionality that is only available to the owner."
      },
      "setDelegate(address)": {
        "details": "Only the owner/admin of the OApp can call this function.Provides the ability for a delegate to set configs, on behalf of the OApp, directly on the Endpoint contract.",
        "params": {
          "_delegate": "The address of the delegate to be set."
        }
      },
      "setEnforcedOptions((uint32,uint16,bytes)[])": {
        "details": "Sets the enforced options for specific endpoint and message type combinations.Only the owner/admin of the OApp can call this function.Provides a way for the OApp to enforce things like paying for PreCrime, AND/OR minimum dst lzReceive gas amounts etc.These enforced options can vary as the potential options/execution on the remote may differ as per the msgType. eg. Amount of lzReceive() gas necessary to deliver a lzCompose() message adds overhead you dont want to pay if you are only making a standard LayerZero message ie. lzReceive() WITHOUT sendCompose().",
        "params": {
          "_enforcedOptions": "An array of EnforcedOptionParam structures specifying enforced options."
        }
      },
      "setPeer(uint32,bytes32)": {
        "details": "Only the owner/admin of the OApp can call this function.Indicates that the peer is trusted to send LayerZero messages to this OApp.Set this to bytes32(0) to remove the peer address.Peer is a bytes32 to accommodate non-evm chains.",
        "params": {
          "_eid": "The endpoint ID.",
          "_peer": "The address of the peer to be associated with the corresponding endpoint."
        }
      },
      "transferOwnership(address)": {
        "details": "Transfers ownership of the contract to a new account (`newOwner`). Can only be called by the current owner."
      }
    },
    "version": 1
  },
  "userdoc": {
    "kind": "user",
    "methods": {
      "allowInitializePath((uint32,bytes32,uint64))": {
        "notice": "Checks if the path initialization is allowed based on the provided origin."
      },
      "combineOptions(uint32,uint16,bytes)": {
        "notice": "Combines options for a given endpoint and message type."
      },
      "composeMsgSender()": {
        "notice": "Retrieves the address responsible for 'sending' composeMsg's to the Endpoint."
      },
      "endpoint()": {
        "notice": "Retrieves the LayerZero endpoint associated with the OApp."
      },
      "nextNonce(uint32,bytes32)": {
        "notice": "Retrieves the next nonce for a given source endpoint and sender address."
      },
      "oAppVersion()": {
        "notice": "Retrieves the OApp version information."
      },
      "peers(uint32)": {
        "notice": "Retrieves the peer (OApp) associated with a corresponding endpoint."
      },
      "setDelegate(address)": {
        "notice": "Sets the delegate address for the OApp."
      },
      "setPeer(uint32,bytes32)": {
        "notice": "Sets the peer address (OApp instance) for a corresponding endpoint."
      }
    },
    "version": 1
  },
  "storageLayout": {
    "storage": [
      {
        "astId": 3884,
        "contract": "contracts/fixed-rate/FixedRate.sol:FixedRate",
        "label": "_owner",
        "offset": 0,
        "slot": "0",
        "type": "t_address"
      },
      {
        "astId": 64,
        "contract": "contracts/fixed-rate/FixedRate.sol:FixedRate",
        "label": "peers",
        "offset": 0,
        "slot": "1",
        "type": "t_mapping(t_uint32,t_bytes32)"
      },
      {
        "astId": 650,
        "contract": "contracts/fixed-rate/FixedRate.sol:FixedRate",
        "label": "enforcedOptions",
        "offset": 0,
        "slot": "2",
        "type": "t_mapping(t_uint32,t_mapping(t_uint16,t_bytes_storage))"
      },
      {
        "astId": 8673,
        "contract": "contracts/fixed-rate/FixedRate.sol:FixedRate",
        "label": "numerators",
        "offset": 0,
        "slot": "3",
        "type": "t_mapping(t_uint32,t_uint256)"
      },
      {
        "astId": 8677,
        "contract": "contracts/fixed-rate/FixedRate.sol:FixedRate",
        "label": "denominators",
        "offset": 0,
        "slot": "4",
        "type": "t_mapping(t_uint32,t_uint256)"
      }
    ],
    "types": {
      "t_address": {
        "encoding": "inplace",
        "label": "address",
        "numberOfBytes": "20"
      },
      "t_bytes32": {
        "encoding": "inplace",
        "label": "bytes32",
        "numberOfBytes": "32"
      },
      "t_bytes_storage": {
        "encoding": "bytes",
        "label": "bytes",
        "numberOfBytes": "32"
      },
      "t_mapping(t_uint16,t_bytes_storage)": {
        "encoding": "mapping",
        "key": "t_uint16",
        "label": "mapping(uint16 => bytes)",
        "numberOfBytes": "32",
        "value": "t_bytes_storage"
      },
      "t_mapping(t_uint32,t_bytes32)": {
        "encoding": "mapping",
        "key": "t_uint32",
        "label": "mapping(uint32 => bytes32)",
        "numberOfBytes": "32",
        "value": "t_bytes32"
      },
      "t_mapping(t_uint32,t_mapping(t_uint16,t_bytes_storage))": {
        "encoding": "mapping",
        "key": "t_uint32",
        "label": "mapping(uint32 => mapping(uint16 => bytes))",
        "numberOfBytes": "32",
        "value": "t_mapping(t_uint16,t_bytes_storage)"
      },
      "t_mapping(t_uint32,t_uint256)": {
        "encoding": "mapping",
        "key": "t_uint32",
        "label": "mapping(uint32 => uint256)",
        "numberOfBytes": "32",
        "value": "t_uint256"
      },
      "t_uint16": {
        "encoding": "inplace",
        "label": "uint16",
        "numberOfBytes": "2"
      },
      "t_uint256": {
        "encoding": "inplace",
        "label": "uint256",
        "numberOfBytes": "32"
      },
      "t_uint32": {
        "encoding": "inplace",
        "label": "uint32",
        "numberOfBytes": "4"
      }
    }
  }
}